{
    "contractName": "ERC20THKXFaucet",
    "abi": [
        {
            "inputs": [
                {
                    "internalType": "address",
                    "name": "_token",
                    "type": "address"
                }
            ],
            "stateMutability": "nonpayable",
            "type": "constructor"
        },
        {
            "anonymous": false,
            "inputs": [
                {
                    "indexed": false,
                    "internalType": "uint256",
                    "name": "newAmount",
                    "type": "uint256"
                }
            ],
            "name": "FaucetSettingsUpdated",
            "type": "event"
        },
        {
            "anonymous": false,
            "inputs": [
                {
                    "indexed": true,
                    "internalType": "address",
                    "name": "previousOwner",
                    "type": "address"
                },
                {
                    "indexed": true,
                    "internalType": "address",
                    "name": "newOwner",
                    "type": "address"
                }
            ],
            "name": "OwnershipTransferred",
            "type": "event"
        },
        {
            "anonymous": false,
            "inputs": [
                {
                    "indexed": true,
                    "internalType": "address",
                    "name": "user",
                    "type": "address"
                },
                {
                    "indexed": false,
                    "internalType": "uint256",
                    "name": "amount",
                    "type": "uint256"
                },
                {
                    "indexed": false,
                    "internalType": "uint256",
                    "name": "timestamp",
                    "type": "uint256"
                }
            ],
            "name": "TokensClaimed",
            "type": "event"
        },
        {
            "anonymous": false,
            "inputs": [
                {
                    "indexed": true,
                    "internalType": "address",
                    "name": "owner",
                    "type": "address"
                },
                {
                    "indexed": false,
                    "internalType": "uint256",
                    "name": "amount",
                    "type": "uint256"
                }
            ],
            "name": "TokensWithdrawn",
            "type": "event"
        },
        {
            "inputs": [],
            "name": "claimAmount",
            "outputs": [
                {
                    "internalType": "uint256",
                    "name": "",
                    "type": "uint256"
                }
            ],
            "stateMutability": "view",
            "type": "function"
        },
        {
            "inputs": [],
            "name": "claimTokens",
            "outputs": [],
            "stateMutability": "nonpayable",
            "type": "function"
        },
        {
            "inputs": [],
            "name": "faucetBalance",
            "outputs": [
                {
                    "internalType": "uint256",
                    "name": "",
                    "type": "uint256"
                }
            ],
            "stateMutability": "view",
            "type": "function"
        },
        {
            "inputs": [],
            "name": "owner",
            "outputs": [
                {
                    "internalType": "address",
                    "name": "",
                    "type": "address"
                }
            ],
            "stateMutability": "view",
            "type": "function"
        },
        {
            "inputs": [],
            "name": "renounceOwnership",
            "outputs": [],
            "stateMutability": "nonpayable",
            "type": "function"
        },
        {
            "inputs": [
                {
                    "internalType": "uint256",
                    "name": "_claimAmount",
                    "type": "uint256"
                }
            ],
            "name": "setFaucetSettings",
            "outputs": [],
            "stateMutability": "nonpayable",
            "type": "function"
        },
        {
            "inputs": [],
            "name": "token",
            "outputs": [
                {
                    "internalType": "contract IERC20",
                    "name": "",
                    "type": "address"
                }
            ],
            "stateMutability": "view",
            "type": "function"
        },
        {
            "inputs": [
                {
                    "internalType": "address",
                    "name": "newOwner",
                    "type": "address"
                }
            ],
            "name": "transferOwnership",
            "outputs": [],
            "stateMutability": "nonpayable",
            "type": "function"
        },
        {
            "inputs": [
                {
                    "internalType": "uint256",
                    "name": "amount",
                    "type": "uint256"
                }
            ],
            "name": "withdrawTokens",
            "outputs": [],
            "stateMutability": "nonpayable",
            "type": "function"
        }
    ],
    "bytecode": "60a03461012157601f610a3b38819003918201601f19168301916001600160401b038311848410176101255780849260209460405283398101031261012157516001600160a01b03811690819003610121575f8054336001600160a01b03198216811783556040519290916001600160a01b0316907f8be0079c531659141344cd1fd0a4f28419497f9722a3daafe3b4186f6b6457e09080a36001805581156100df575060805268056bc75e2d63100000600255604051610901908161013a82396080518181816094015281816102f10152818161042c01526105610152f35b62461bcd60e51b815260206004820152601560248201527f496e76616c696420746f6b656e206164647265737300000000000000000000006044820152606490fd5b5f80fd5b634e487b7160e01b5f52604160045260245ffdfe6080806040526004361015610012575f80fd5b5f3560e01c9081631720f5d21461053957508063315a095d146103f357806348c54b9d146102c4578063715018a61461026d578063830953ab146102505780638da5cb5b146102295780638f0f4e7a14610191578063f2fde38b146100c75763fc0c546a1461007f575f80fd5b346100c3575f3660031901126100c3576040517f00000000000000000000000000000000000000000000000000000000000000006001600160a01b03168152602090f35b5f80fd5b346100c35760203660031901126100c3576004356001600160a01b038116908190036100c3576100f561060c565b801561013d575f80546001600160a01b03198116831782556001600160a01b0316907f8be0079c531659141344cd1fd0a4f28419497f9722a3daafe3b4186f6b6457e09080a3005b60405162461bcd60e51b815260206004820152602660248201527f4f776e61626c653a206e6577206f776e657220697320746865207a65726f206160448201526564647265737360d01b6064820152608490fd5b346100c35760203660031901126100c3576004356101ad61060c565b80156101e4576020817f1aa97bff1df53249b68cfad8d197380b29fc7974a6d9a632668dbafd5ace543292600255604051908152a1005b60405162461bcd60e51b815260206004820152601860248201527f436c61696d20616d6f756e74206d757374206265203e203000000000000000006044820152606490fd5b346100c3575f3660031901126100c3575f546040516001600160a01b039091168152602090f35b346100c3575f3660031901126100c3576020600254604051908152f35b346100c3575f3660031901126100c35761028561060c565b5f80546001600160a01b0319811682556001600160a01b03167f8be0079c531659141344cd1fd0a4f28419497f9722a3daafe3b4186f6b6457e08280a3005b346100c3575f3660031901126100c3576102dc610663565b6040516370a0823160e01b81523060048201527f0000000000000000000000000000000000000000000000000000000000000000906020816024816001600160a01b0386165afa9081156103e8575f916103b6575b50600254809110610382576103479133906106b9565b6002546040519081524260208201527f9923b4306c6c030f2bdfbf156517d5983b87e15b96176da122cd4f2effa4ba7b60403392a260018055005b60405162461bcd60e51b815260206004820152600c60248201526b46617563657420656d70747960a01b6044820152606490fd5b90506020813d6020116103e0575b816103d1602093836105d6565b810103126100c3575182610331565b3d91506103c4565b6040513d5f823e3d90fd5b346100c35760203660031901126100c35760043561040f61060c565b610417610663565b6040516370a0823160e01b81523060048201527f0000000000000000000000000000000000000000000000000000000000000000906020816024816001600160a01b0386165afa80156103e85783915f91610504575b50106104c8575f5461048a9183916001600160a01b0316906106b9565b5f546040519182526001600160a01b0316907f6352c5382c4a4578e712449ca65e83cdb392d045dfcf1cad9615189db2da244b90602090a260018055005b60405162461bcd60e51b8152602060048201526014602482015273496e73756666696369656e742062616c616e636560601b6044820152606490fd5b9150506020813d602011610531575b81610520602093836105d6565b810103126100c3578290518461046d565b3d9150610513565b346100c3575f3660031901126100c3576370a0823160e01b81523060048201526020816024817f00000000000000000000000000000000000000000000000000000000000000006001600160a01b03165afa80156103e8575f906105a3575b602090604051908152f35b506020813d6020116105ce575b816105bd602093836105d6565b810103126100c35760209051610598565b3d91506105b0565b90601f8019910116810190811067ffffffffffffffff8211176105f857604052565b634e487b7160e01b5f52604160045260245ffd5b5f546001600160a01b0316330361061f57565b606460405162461bcd60e51b815260206004820152602060248201527f4f776e61626c653a2063616c6c6572206973206e6f7420746865206f776e65726044820152fd5b600260015414610674576002600155565b60405162461bcd60e51b815260206004820152601f60248201527f5265656e7472616e637947756172643a207265656e7472616e742063616c6c006044820152606490fd5b5f809193929360405193602085019563a9059cbb60e01b875260018060a01b031660248601526044850152604484526106f36064856105d6565b60018060a01b0316936040519361070b6040866105d6565b602085527f5361666545524332303a206c6f772d6c6576656c2063616c6c206661696c65646020860152519082865af13d1561080e573d9067ffffffffffffffff82116105f85760405161077d94909261076f601f8201601f1916602001856105d6565b83523d5f602085013e610817565b80519081159182156107eb575b50501561079357565b60405162461bcd60e51b815260206004820152602a60248201527f5361666545524332303a204552433230206f7065726174696f6e20646964206e6044820152691bdd081cdd58d8d9595960b21b6064820152608490fd5b81925090602091810103126100c3576020015180151581036100c3575f8061078a565b9161077d926060915b91929015610879575081511561082b575090565b3b156108345790565b60405162461bcd60e51b815260206004820152601d60248201527f416464726573733a2063616c6c20746f206e6f6e2d636f6e74726163740000006044820152606490fd5b82519091501561088c5750805190602001fd5b604460209160405192839162461bcd60e51b83528160048401528051918291826024860152018484015e5f828201840152601f01601f19168101030190fdfea2646970667358221220913600126ecad4d4c8ba55a70575c8392dd3ca0724aa413651626ecf038e212464736f6c634300081c0033",
    "sourcePath": "/home/kali/THKX/contracts/erc20-thk-faucet.sol",
    "compiler": {
        "name": "solc",
        "version": "0.8.28+commit.7893614a"
    },
    "functionHashes": {
        "claimAmount()": "830953ab",
        "claimTokens()": "48c54b9d",
        "faucetBalance()": "1720f5d2",
        "owner()": "8da5cb5b",
        "renounceOwnership()": "715018a6",
        "setFaucetSettings(uint256)": "8f0f4e7a",
        "token()": "fc0c546a",
        "transferOwnership(address)": "f2fde38b",
        "withdrawTokens(uint256)": "315a095d"
    },
    "gasEstimates": {
        "creation": {
            "codeDepositCost": "461000",
            "executionCost": "infinite",
            "totalCost": "infinite"
        },
        "external": {
            "claimAmount()": "2344",
            "claimTokens()": "infinite",
            "faucetBalance()": "infinite",
            "owner()": "2389",
            "renounceOwnership()": "28116",
            "setFaucetSettings(uint256)": "25591",
            "token()": "infinite",
            "transferOwnership(address)": "28285",
            "withdrawTokens(uint256)": "infinite"
        }
    }
}