{
    "contractName": "ERC20THKXFaucet",
    "abi": [
        {
            "inputs": [
                {
                    "internalType": "address",
                    "name": "_token",
                    "type": "address"
                }
            ],
            "stateMutability": "nonpayable",
            "type": "constructor"
        },
        {
            "anonymous": false,
            "inputs": [
                {
                    "indexed": false,
                    "internalType": "uint256",
                    "name": "newAmount",
                    "type": "uint256"
                },
                {
                    "indexed": false,
                    "internalType": "uint256",
                    "name": "newCooldown",
                    "type": "uint256"
                }
            ],
            "name": "FaucetSettingsUpdated",
            "type": "event"
        },
        {
            "anonymous": false,
            "inputs": [
                {
                    "indexed": true,
                    "internalType": "address",
                    "name": "previousOwner",
                    "type": "address"
                },
                {
                    "indexed": true,
                    "internalType": "address",
                    "name": "newOwner",
                    "type": "address"
                }
            ],
            "name": "OwnershipTransferred",
            "type": "event"
        },
        {
            "anonymous": false,
            "inputs": [
                {
                    "indexed": true,
                    "internalType": "address",
                    "name": "user",
                    "type": "address"
                },
                {
                    "indexed": false,
                    "internalType": "uint256",
                    "name": "amount",
                    "type": "uint256"
                },
                {
                    "indexed": false,
                    "internalType": "uint256",
                    "name": "timestamp",
                    "type": "uint256"
                }
            ],
            "name": "TokensClaimed",
            "type": "event"
        },
        {
            "anonymous": false,
            "inputs": [
                {
                    "indexed": true,
                    "internalType": "address",
                    "name": "owner",
                    "type": "address"
                },
                {
                    "indexed": false,
                    "internalType": "uint256",
                    "name": "amount",
                    "type": "uint256"
                }
            ],
            "name": "TokensWithdrawn",
            "type": "event"
        },
        {
            "inputs": [
                {
                    "internalType": "address",
                    "name": "user",
                    "type": "address"
                }
            ],
            "name": "canClaim",
            "outputs": [
                {
                    "internalType": "bool",
                    "name": "",
                    "type": "bool"
                }
            ],
            "stateMutability": "view",
            "type": "function"
        },
        {
            "inputs": [],
            "name": "claimAmount",
            "outputs": [
                {
                    "internalType": "uint256",
                    "name": "",
                    "type": "uint256"
                }
            ],
            "stateMutability": "view",
            "type": "function"
        },
        {
            "inputs": [],
            "name": "claimCooldown",
            "outputs": [
                {
                    "internalType": "uint256",
                    "name": "",
                    "type": "uint256"
                }
            ],
            "stateMutability": "view",
            "type": "function"
        },
        {
            "inputs": [],
            "name": "claimTokens",
            "outputs": [],
            "stateMutability": "nonpayable",
            "type": "function"
        },
        {
            "inputs": [],
            "name": "faucetBalance",
            "outputs": [
                {
                    "internalType": "uint256",
                    "name": "",
                    "type": "uint256"
                }
            ],
            "stateMutability": "view",
            "type": "function"
        },
        {
            "inputs": [
                {
                    "internalType": "address",
                    "name": "user",
                    "type": "address"
                }
            ],
            "name": "lastClaimed",
            "outputs": [
                {
                    "internalType": "uint256",
                    "name": "",
                    "type": "uint256"
                }
            ],
            "stateMutability": "view",
            "type": "function"
        },
        {
            "inputs": [],
            "name": "owner",
            "outputs": [
                {
                    "internalType": "address",
                    "name": "",
                    "type": "address"
                }
            ],
            "stateMutability": "view",
            "type": "function"
        },
        {
            "inputs": [],
            "name": "renounceOwnership",
            "outputs": [],
            "stateMutability": "nonpayable",
            "type": "function"
        },
        {
            "inputs": [
                {
                    "internalType": "uint256",
                    "name": "_claimAmount",
                    "type": "uint256"
                },
                {
                    "internalType": "uint256",
                    "name": "_claimCooldown",
                    "type": "uint256"
                }
            ],
            "name": "setFaucetSettings",
            "outputs": [],
            "stateMutability": "nonpayable",
            "type": "function"
        },
        {
            "inputs": [],
            "name": "token",
            "outputs": [
                {
                    "internalType": "contract IERC20",
                    "name": "",
                    "type": "address"
                }
            ],
            "stateMutability": "view",
            "type": "function"
        },
        {
            "inputs": [
                {
                    "internalType": "address",
                    "name": "newOwner",
                    "type": "address"
                }
            ],
            "name": "transferOwnership",
            "outputs": [],
            "stateMutability": "nonpayable",
            "type": "function"
        },
        {
            "inputs": [
                {
                    "internalType": "uint256",
                    "name": "amount",
                    "type": "uint256"
                }
            ],
            "name": "withdrawTokens",
            "outputs": [],
            "stateMutability": "nonpayable",
            "type": "function"
        }
    ],
    "bytecode": "60a03461012d57601f610c7c38819003918201601f19168301916001600160401b038311848410176101315780849260209460405283398101031261012d57516001600160a01b0381169081900361012d575f8054336001600160a01b03198216811783556040519290916001600160a01b0316907f8be0079c531659141344cd1fd0a4f28419497f9722a3daafe3b4186f6b6457e09080a36001805581156100eb575060805268056bc75e2d63100000600255601e600355604051610b369081610146823960805181818160d60152818161023f0152818161048d01528181610604015261073c0152f35b62461bcd60e51b815260206004820152601560248201527f496e76616c696420746f6b656e206164647265737300000000000000000000006044820152606490fd5b5f80fd5b634e487b7160e01b5f52604160045260245ffdfe6080806040526004361015610012575f80fd5b5f3560e01c908163013eba92146107b1575080631720f5d214610711578063315a095d146105cb57806348c54b9d1461044157806353dfa4791461035b578063715018a614610304578063830953ab146102e75780638da5cb5b146102c0578063bf3506c1146101cf578063f2fde38b14610105578063fc0c546a146100c15763fdea3657146100a0575f80fd5b346100bd575f3660031901126100bd576020600354604051908152f35b5f80fd5b346100bd575f3660031901126100bd576040517f00000000000000000000000000000000000000000000000000000000000000006001600160a01b03168152602090f35b346100bd5760203660031901126100bd576004356001600160a01b038116908190036100bd57610133610841565b801561017b575f80546001600160a01b03198116831782556001600160a01b0316907f8be0079c531659141344cd1fd0a4f28419497f9722a3daafe3b4186f6b6457e09080a3005b60405162461bcd60e51b815260206004820152602660248201527f4f776e61626c653a206e6577206f776e657220697320746865207a65726f206160448201526564647265737360d01b6064820152608490fd5b346100bd5760203660031901126100bd576004356001600160a01b038116908190036100bd575f52600460205261020d60405f205460035490610820565b42101580610223575b6020906040519015158152f35b506040516370a0823160e01b81523060048201526020816024817f00000000000000000000000000000000000000000000000000000000000000006001600160a01b03165afa80156102b5575f90610282575b60025411159050610216565b506020813d6020116102ad575b8161029c602093836107ea565b810103126100bd5760209051610276565b3d915061028f565b6040513d5f823e3d90fd5b346100bd575f3660031901126100bd575f546040516001600160a01b039091168152602090f35b346100bd575f3660031901126100bd576020600254604051908152f35b346100bd575f3660031901126100bd5761031c610841565b5f80546001600160a01b0319811682556001600160a01b03167f8be0079c531659141344cd1fd0a4f28419497f9722a3daafe3b4186f6b6457e08280a3005b346100bd5760403660031901126100bd5760043560243561037a610841565b81156103fc5780156103c057816040917fdc626eb825d4512b7e5b1552bb1832cc21d7e976b48012bc392ba66a00984cf8936002558060035582519182526020820152a1005b60405162461bcd60e51b81526020600482015260146024820152730436f6f6c646f776e206d757374206265203e20360641b6044820152606490fd5b60405162461bcd60e51b815260206004820152601860248201527f436c61696d20616d6f756e74206d757374206265203e203000000000000000006044820152606490fd5b346100bd575f3660031901126100bd57610459610898565b335f52600460205261047260405f205460035490610820565b4210610594576040516370a0823160e01b81523060048201527f0000000000000000000000000000000000000000000000000000000000000000906020816024816001600160a01b0386165afa9081156102b5575f91610562575b506002541161052e576104f390335f5260046020524260405f20556002549033906108ee565b6002546040519081524260208201527f9923b4306c6c030f2bdfbf156517d5983b87e15b96176da122cd4f2effa4ba7b60403392a260018055005b60405162461bcd60e51b815260206004820152600c60248201526b46617563657420656d70747960a01b6044820152606490fd5b90506020813d60201161058c575b8161057d602093836107ea565b810103126100bd5751826104cd565b3d9150610570565b60405162461bcd60e51b815260206004820152600f60248201526e436f6f6c646f776e2061637469766560881b6044820152606490fd5b346100bd5760203660031901126100bd576004356105e7610841565b6105ef610898565b6040516370a0823160e01b81523060048201527f0000000000000000000000000000000000000000000000000000000000000000906020816024816001600160a01b0386165afa80156102b55783915f916106dc575b50106106a0575f546106629183916001600160a01b0316906108ee565b5f546040519182526001600160a01b0316907f6352c5382c4a4578e712449ca65e83cdb392d045dfcf1cad9615189db2da244b90602090a260018055005b60405162461bcd60e51b8152602060048201526014602482015273496e73756666696369656e742062616c616e636560601b6044820152606490fd5b9150506020813d602011610709575b816106f8602093836107ea565b810103126100bd5782905184610645565b3d91506106eb565b346100bd575f3660031901126100bd576040516370a0823160e01b81523060048201526020816024817f00000000000000000000000000000000000000000000000000000000000000006001600160a01b03165afa80156102b5575f9061077e575b602090604051908152f35b506020813d6020116107a9575b81610798602093836107ea565b810103126100bd5760209051610773565b3d915061078b565b346100bd5760203660031901126100bd576004356001600160a01b03811691908290036100bd576020915f526004825260405f20548152f35b90601f8019910116810190811067ffffffffffffffff82111761080c57604052565b634e487b7160e01b5f52604160045260245ffd5b9190820180921161082d57565b634e487b7160e01b5f52601160045260245ffd5b5f546001600160a01b0316330361085457565b606460405162461bcd60e51b815260206004820152602060248201527f4f776e61626c653a2063616c6c6572206973206e6f7420746865206f776e65726044820152fd5b6002600154146108a9576002600155565b60405162461bcd60e51b815260206004820152601f60248201527f5265656e7472616e637947756172643a207265656e7472616e742063616c6c006044820152606490fd5b5f809193929360405193602085019563a9059cbb60e01b875260018060a01b031660248601526044850152604484526109286064856107ea565b60018060a01b031693604051936109406040866107ea565b602085527f5361666545524332303a206c6f772d6c6576656c2063616c6c206661696c65646020860152519082865af13d15610a43573d9067ffffffffffffffff821161080c576040516109b29490926109a4601f8201601f1916602001856107ea565b83523d5f602085013e610a4c565b8051908115918215610a20575b5050156109c857565b60405162461bcd60e51b815260206004820152602a60248201527f5361666545524332303a204552433230206f7065726174696f6e20646964206e6044820152691bdd081cdd58d8d9595960b21b6064820152608490fd5b81925090602091810103126100bd576020015180151581036100bd575f806109bf565b916109b2926060915b91929015610aae5750815115610a60575090565b3b15610a695790565b60405162461bcd60e51b815260206004820152601d60248201527f416464726573733a2063616c6c20746f206e6f6e2d636f6e74726163740000006044820152606490fd5b825190915015610ac15750805190602001fd5b604460209160405192839162461bcd60e51b83528160048401528051918291826024860152018484015e5f828201840152601f01601f19168101030190fdfea2646970667358221220b49358d1cb9cade6421b26a5fcb1052aa639f98164fdcd55b2c53c45b00af0f764736f6c634300081c0033",
    "sourcePath": "/home/kali/THKX/contracts/erc20-thk-faucet.sol",
    "compiler": {
        "name": "solc",
        "version": "0.8.28+commit.7893614a"
    },
    "functionHashes": {
        "canClaim(address)": "bf3506c1",
        "claimAmount()": "830953ab",
        "claimCooldown()": "fdea3657",
        "claimTokens()": "48c54b9d",
        "faucetBalance()": "1720f5d2",
        "lastClaimed(address)": "013eba92",
        "owner()": "8da5cb5b",
        "renounceOwnership()": "715018a6",
        "setFaucetSettings(uint256,uint256)": "53dfa479",
        "token()": "fc0c546a",
        "transferOwnership(address)": "f2fde38b",
        "withdrawTokens(uint256)": "315a095d"
    },
    "gasEstimates": {
        "creation": {
            "codeDepositCost": "574000",
            "executionCost": "infinite",
            "totalCost": "infinite"
        },
        "external": {
            "canClaim(address)": "infinite",
            "claimAmount()": "2388",
            "claimCooldown()": "2495",
            "claimTokens()": "infinite",
            "faucetBalance()": "infinite",
            "lastClaimed(address)": "2362",
            "owner()": "2433",
            "renounceOwnership()": "28160",
            "setFaucetSettings(uint256,uint256)": "47952",
            "token()": "infinite",
            "transferOwnership(address)": "28329",
            "withdrawTokens(uint256)": "infinite"
        }
    }
}